:020000040800F2
:1000000000500020490F0008DD0E0008DF0E000838
:10001000E10E0008E30E0008E50E000800000000F5
:10002000000000000000000000000000E70E0008D3
:10003000E90E000800000000EB0E0008ED0E0008BD
:10004000910F0008910F0008910F0008910F000810
:10005000910F0008910F0008910F0008910F000800
:10006000910F0008910F0008910F0008910F0008F0
:10007000910F0008910F0008910F0008910F0008E0
:10008000910F0008910F0008910F0008910F0008D0
:10009000910F0008910F0008910F0008910F0008C0
:1000A000910F0008910F0008910F0008910F0008B0
:1000B000910F0008910F0008910F0008910F0008A0
:1000C000910F0008910F0008910F0008910F000890
:1000D000910F0008910F0008910F0008910F000880
:1000E000910F0008910F0008910F00080000000018
:1000F0000000000000000000000000000000000000
:0C01000000000000000000005FF808F1A3
:10010C0010B5054C237833B9044B13B10448AFF345
:10011C0000800123237010BD0C00002000000000A3
:10012C00DC0F000808B5034B1BB103490348AFF3C0
:10013C00008008BD0000000010000020DC0F00084B
:10014C0038B50E4B054618784FF47A73B3FBF0F3C1
:10015C000B4A1068B0FBF3F000F092F8044658B963
:10016C000F2D09D8024629464FF0FF3000F054F805
:10017C00044B20461D6038BD012038BD0000002016
:10018C000800002004000020074A08B51368052069
:10019C0043F01003136000F02DF80020FFF7D0FFA0
:1001AC0000F050FE002008BD00200240034A044B22
:1001BC0011681B780B441360704700BF28000020A7
:1001CC0000000020014B1868704700BF2800002079
:1001DC0038B50446FFF7F6FF0546631C1EBF044BFB
:1001EC001B78E418FFF7EEFF401B8442FAD838BDA9
:1001FC0000000020074A0002D36800F4E06023F4FA
:10020C00E0631B041B0C43F0BF6343F40033034354
:10021C00D360704700ED00E0174B30B5DC68C4F3D9
:10022C000224C4F10703251D042B28BF0423062D2B
:10023C004FF0010598BF002405FA03F303F1FF33D7
:10024C0088BF033C1940A14005FA04F4013C22404C
:10025C00002842EA01024FEA0212AFBF00F16040EF
:10026C00064B00F00F00D2B2A5BFD2B200F5614030
:10027C001A5480F8002330BD00ED00E014ED00E0CE
:10028C000138B0F1807F0AD2F021064B064A586043
:10029C0082F823100020072298601A607047012012
:1002AC00704700BF10E000E000ED00E0044B0428B4
:1002BC001A680CBF42F0040222F004021A60704764
:1002CC0010E000E0704708B5FFF7FCFF08BD000028
:1002DC002DE9F74F00221646654BDFF8A4E1DFF855
:1002EC00A4C14FF001080C6808FA06F808EA0404E7
:1002FC00A0457FD14D68122D00F0AF8000F28880B0
:10030C00022D00F0A7807CD8002D00F08E80012DEE
:10031C0000F09E804FF00F09FF2C93BF824606F130
:10032C008045083DD0F800B092BFB500D0F804B0BD
:10033C00AD0009FA05F82BEA080802FA05F588BFA2
:10034C0000F1040A48EA0505CAF80050D1F804A0E7
:10035C001AF0805F4ED0474D464FAD6926F003082A
:10036C0045F00105BD61BD6908F1804805F0010546
:10037C00019508F5803806F0030B019D4FEA8B0BB5
:10038C00D8F8085009FA0BF925EA09093A4DA842A0
:10039C0068D005F58065A84266D005F58065A84251
:1003AC0064D005F58065A8420CBF0325042505FA29
:1003BC000BF545EA0905C8F808501D681AF4803F8A
:1003CC0014BF2543A5431D605D681AF4003F14BF9C
:1003DC002543A5435D609D681AF4801F14BF254317
:1003EC00A5439D60DD681AF4001F14BF2C4325EA59
:1003FC000404DC600136102E7FF473AF03B0BDE84B
:10040C00F08F032D22D0112D84D1CA68043281E7DC
:10041C001A4FBD4209D012D8DFF86C904D4504D06C
:10042C0009F580394D457FF475AF8A68C2B1012A50
:10043C000CBFC0F81080C0F8148008226AE775451C
:10044C00F3D06545F1D0DFF84490EBE7002261E78B
:10045C00CA685FE7CA6808325CE7CA680C3259E7B9
:10046C00042257E70025A2E70125A0E702259EE715
:10047C00000401400010024000080140000021105F
:10048C00000031100000321000001110000022108A
:10049C000AB1016170470904FBE7000003682DE90C
:1004AC00F341DB07054610D42B689F075ED42B68FD
:1004BC00190700F195802B685A0700F1BF80EA6993
:1004CC00002A40F02D81002014E0904C636803F06A
:1004DC000C03042B07D0636803F00C03082B0CD11E
:1004EC006368DE0309D523689C03DDD56B68002B9C
:1004FC00DAD1012002B0BDE8F0816B68B3F5803F22
:10050C0010D1236843F480332360FFF75BFE06466B
:10051C0023689803C8D4FFF755FE801B6428F7D9CD
:10052C000320E7E79BB9236823F480332360236817
:10053C0023F480232360FFF745FE064623689903C6
:10054C00B2D5FFF73FFE801B6428F7D9E8E7B3F577
:10055C00A02F236803D143F480232360D1E723F435
:10056C0080332360236823F48023CDE7674C6368D2
:10057C0013F00C0F07D0636803F00C03082B10D199
:10058C006368DA030DD423689B0702D52B69012B12
:10059C00AFD123686A6923F0F80343EAC2032360EE
:1005AC0085E72A695A4B6AB101221A60FFF70AFEE5
:1005BC00064623689F07ECD4FFF704FE801B022835
:1005CC00F7D9ADE71A60FFF7FDFD064623689807DB
:1005DC007FF56DAFFFF7F6FD801B0228F6D99FE77C
:1005EC00AA694A4C4B4BDAB101221A60FFF7EAFDBB
:1005FC000646636A9B070DD54FF4FA52464B1B68AF
:10060C00B3FBF2F3019300BF019B5A1E0192002B26
:10061C00F9D150E7FFF7D6FD801B0228E9D97FE717
:10062C001A60FFF7CFFD0646636A9F077FF543AF5D
:10063C00FFF7C8FD801B0228F6D971E7334CE3693C
:10064C00D80024D40127E36943F08053E361E369C4
:10065C0003F080530093009B304E3368D90518D5B6
:10066C00EB68012B26D1236A43F001032362FFF7C9
:10067C00A9FD41F288368046236A9B073FD5002F9F
:10068C003FF41DAFE36923F08053E36117E70027C4
:10069C00E2E7336843F480733360FFF793FD8046E1
:1006AC003368DA05DCD4FFF78DFDA0EB0800642875
:1006BC00F6D935E7ABB9236A41F2883823F0010348
:1006CC002362236A23F004032362FFF77BFD0646B3
:1006DC00236A9807D3D5FFF775FD801B4045F7D9E2
:1006EC001EE7052B236A03D143F004032362BAE708
:1006FC0023F001032362236A23F00403B6E7FFF718
:10070C0061FDA0EB0800B042B6D909E70010024029
:10071C000000424280044242080000200070004069
:10072C00224C636803F00C03082B3FF4E2AE002369
:10073C001F4E022A33602BD1FFF744FD0746236876
:10074C0099011FD42B6AB3F5803F05D16268A96863
:10075C0022F400320A436260696A62680B4322F435
:10076C0074121343636001233360FFF72BFD0546BE
:10077C0023689A013FF5A7AEFFF724FD401B022822
:10078C00F6D9CDE6FFF71EFDC01B0228D7D9C7E668
:10079C00FFF718FD054623689B017FF594AEFFF724
:1007AC0011FD401B0228F6D9BAE600BF001002402A
:1007BC006000424230B5194B87B002AC03F1100512
:1007CC00224618685968083303C2AB421446F7D165
:1007DC0001238DF80430022311498DF805304B6844
:1007EC0003F00C02082A17D1C3F3834206A8024473
:1007FC00DB0312F8102C0CD54B680A48C3F34043AA
:10080C00504306AA134413F8143CB0FBF3F007B0A2
:10081C0030BD05485043FAE70248F8E7F40F0008EA
:10082C000010024000127A0000093D004D4A2DE9EB
:10083C00F0411368054603F007038B420E4628D39C
:10084C002A68910732D4D20738D4464A136803F089
:10085C0007039E4273D32A68434C12F0040F79D1DC
:10086C00130706D563682A6923F4605343EAC2036D
:10087C006360FFF79FFF63683C4AC3F30313D35CC9
:10088C00D8403B4B18600020FFF75AFC0020BDE815
:10089C00F081136823F007030B431360136803F014
:1008AC0007039942CCD00120BDE8F0812E49A868FD
:1008BC004B6823F0F00303434B60C4E76A682A4C8F
:1008CC00012A23681CD113F4003FECD0636841F279
:1008DC00883823F0030313436360FFF773FC6B68E2
:1008EC000746012B14D1636803F00C03042BACD026
:1008FC00FFF768FCC01B4045F5D90320BDE8F0812B
:10090C00022A02D113F0007FDFE713F0020FDCE7BD
:10091C00022B0FD1636803F00C03082B95D0FFF763
:10092C0051FCC01B4045F5D9E7E7FFF74BFCC01B5A
:10093C004045E2D8636813F00C0FF6D185E71368D5
:10094C0023F0070333431360136803F007039E423D
:10095C00A9D180E76368E96823F4E0630B43636023
:10096C007EE700BF002002400010024088190008FA
:10097C0008000020014B1868704700BF08000020D9
:10098C00022310B590B0069301230A9310230B9306
:10099C00002306A80D93FFF781FD014600B1FEE789
:1009AC000F23029003900490059001A80193FFF788
:1009BC003DFF044600B1FEE7FFF7DCFF4FF47A730E
:1009CC00B0FBF3F0FFF75CFC0420FFF76FFC224652
:1009DC0021464FF0FF30FFF71FFC10B010BD000098
:1009EC007FB5FFF7D1FBFFF7CBFF104B4FF4F8416E
:1009FC009A690F4842F008029A619B69012203F040
:100A0C0008030193019BFFF743FD4FF4F843029356
:100A1C0001230393032302A905480593FFF758FC10
:100A2C0000F032F900F0CEF8FEE700BF00100240F3
:100A3C00000C014070B5054608240E4E00224FF400
:100A4C0080510C48FFF724FD2B064CBF01220022DD
:100A5C004FF480613046FFF71BFD013C01224FF43F
:100A6C00805130466D00FFF713FD14F0FF04EDB21A
:100A7C00E4D170BD000C014070B50024084E00EBB1
:100A8C00C101002365183544D05C05F833000133EF
:100A9C00202BF9D10134042C02F12002F1D170BDCC
:100AAC002C00002007220023012110B510F0010FAB
:100ABC0001FA02F41ABF2343DBB2A34312F1FF3253
:100ACC004FEA5000F2D2184610BD00002DE9F74F46
:100ADC008046174601250E46DFF854A013496B1EBD
:100AEC009BB2FB5C13B903B0BDE8F08F203BDAB2CC
:100AFC005E2A18D84FF0000B9BB203EB8303CC1883
:100B0C0008EBC60303EB0A0914F80B000191FFF77D
:100B1C00C9FF09F83B000BF1010BBBF1050F019963
:100B2C00F2D10636F6B20135ADB2D8E73D10000869
:100B3C002C0000202DE9F74F0646894615464FF04C
:100B4C000108DFF87CA01D4F08F1FF339BB2EC5C71
:100B5C0014B903B0BDE8F08F203CE3B25E2B28D86B
:100B6C000023A4B2240106EBC90B0AEB0402BB441C
:100B7C00D05C8DE80C00FFF795FF019B009A0BF8F9
:100B8C0033000133082BF3D1E31D0F345344544489
:100B9C0013F8010F0BF1080B00930193FFF782FF81
:100BAC00009B0BF8070CA342F2D109F108095FFA7C
:100BBC0089F908F101081FFA88F8C5E72C00002014
:100BCC0018120008002170B50846284AFFF754FF98
:100BDC00274A20210020FFF74FFF264A4021002002
:100BEC00FFF74AFF244A01210420FFF7A3FF234A01
:100BFC0001210620FFF76AFF00224FF40061204814
:100C0C00FFF746FC0F20FFF715FF0020FFF712FF40
:100C1C00FF20FFF70FFFFC20FFF70CFF0025194EFC
:100C2C000024A319585D0134FFF704FF082CF8D1F8
:100C3C000835B5F5FF6FF3D101224FF40061104870
:100C4C00FFF726FC00224FF400610D48FFF720FC53
:100C5C000120FFF7EFFE0220FFF7ECFEBDE870402D
:100C6C0001224FF400610648FFF712BC0819000876
:100C7C008818000808180008041000082210000842
:100C8C00000C01402C00002010B56D4C01222046B8
:100C9C004FF48041FFF7FCFB01224FF4005120463A
:100CAC00FFF7F6FB0120FFF793FA00224FF40061E7
:100CBC002046FFF7EDFB0120FFF78AFA3320FFF700
:100CCC00B9FE4020FFF7B6FE0020FFF7B3FE01226D
:100CDC004FF400612046FFF7DBFB0120FFF778FAA9
:100CEC0000224FF400612046FFF7D2FB0720FFF7EC
:100CFC00A1FE3F20FFF79EFE7C20FFF79BFE00200D
:100D0C00FFF798FE0420FFF795FE0120FFF792FEF7
:100D1C000120FFF78FFE0120FFF78CFE01224FF41C
:100D2C0000612046FFF7B4FB0120FFF751FA0022C7
:100D3C004FF400612046FFF7ABFB8D20FFF77AFEE6
:100D4C000420FFF777FEFC20FFF774FE0020FFF76E
:100D5C0071FE8020FFF76EFE01224FF400612046E9
:100D6C00FFF796FB0120FFF733FA00224FF40061E6
:100D7C002046FFF78DFB0520FFF75CFE0020FFF7F8
:100D8C0059FE0020FFF756FE01224FF40061204669
:100D9C00FFF77EFB0120FFF71BFA00224FF40061E6
:100DAC002046FFF775FB0320FFF744FE0020FFF7FA
:100DBC0041FE0020FFF73EFE01224FF40061204669
:100DCC00FFF766FB0120FFF703FA00224FF40061E6
:100DDC002046FFF75DFB0B20FFF72CFE0020FFF7F2
:100DEC0029FEFF20FFF726FE0220FFF723FE01223B
:100DFC004FF400612046FFF74BFB0120FFF7E8F9A9
:100E0C0000224FF400612046FFF742FB0520FFF75C
:100E1C0011FE3020FFF70EFEFF20FFF70BFE012224
:100E2C004FF400612046FFF733FB0120FFF7D0F9A8
:100E3C002046BDE8104000224FF40061FFF728BBAC
:100E4C00000C0140204B07B59A69032042F00102C7
:100E5C009A619B6903F001030193019BFFF7CAF9A7
:100E6C0000226FF00B001146FFF7D6F900226FF04D
:100E7C000A001146FFF7D0F900226FF00900114665
:100E8C00FFF7CAF900226FF004001146FFF7C4F90E
:100E9C0000226FF003001146FFF7BEF900226FF03D
:100EAC0001001146FFF7B8F900224FF0FF30114650
:100EBC00FFF7B2F9054A536823F0E06343F080630F
:100ECC00536003B05DF804FB0010024000000140C9
:100EDC007047FEE7FEE7FEE7FEE770477047704796
:100EEC0008B5FFF763F9BDE80840FFF7ECB900005F
:100EFC000F4B1A6842F001021A6059680D4A0A40F9
:100F0C005A601A6822F0847222F480321A601A68CD
:100F1C0022F480221A605A6822F4FE025A604FF4BE
:100F2C001F029A604FF00062034B9A60704700BF3B
:100F3C00001002400000FFF800ED00E0002103E08B
:100F4C000B4B5B58435004310A480B4B42189A42E6
:100F5C00F6D30A4A02E0002342F8043B084B9A42BB
:100F6C00F9D3FFF7C5FF00F00FF8FFF739FD704715
:100F7C00A0190008000000200C0000200C0000202C
:100F8C0024080020FEE7000070B500250C4E0D4C27
:100F9C00A41BA410A54209D100F01AF800250A4E92
:100FAC000A4CA41BA410A54205D170BD56F82530DF
:100FBC0098470135EEE756F8253098470135F2E7AA
:100FCC009819000898190008981900089C1900082D
:100FDC00F8B500BFF8BC08BC9E467047F8B500BF1A
:080FEC00F8BC08BC9E467047EA
:100FF40002030405060708090A0B0C0D0E0F101056
:1010040030313233343536373839207E2140232489
:10101400255E262A28295F2B7B7D3A3B7C004142B2
:10102400434445464748494A4B4C4D4E4F50515214
:10103400535455565758595A0000000000000000F8
:101044004F00000007000700147F147F14242A7F38
:101054002A122313086462364955225000050700FA
:1010640000001C2241000041221C0014083E081408
:1010740008083E0808005030000008080808080066
:101084006060000020100804023E5149453E0042C1
:101094007F400042615149462141454B31181412A9
:1010A4007F1027454545393C4A49493001710905B6
:1010B400033649494936064949291E003636000097
:1010C40000563600000814224100141414141400AD
:1010D400412214080201510906324979413E7E1128
:1010E40011117E7F494949363E414141227F4141A8
:1010F400221C7F494949417F090909013E41494967
:101104007A7F0808087F00417F41002040413F0169
:101114007F081422417F404040407F020C027F7FC1
:101124000408107F3E4141413E7F090909063E41C2
:1011340051215E7F09192946464949493101017FF8
:1011440001013F4040403F1F2040201F3F403840A6
:101154003F63140814630708700807615149454345
:10116400007F41410002040810200041417F000437
:1011740002010204404040404001020400002054A7
:101184005454787F484848303844444444304848AC
:10119400487F385454545800087E09024854545423
:1011A4003C7F0808087000007A00002040403D00A1
:1011B4007F2028440000417F40007C0438047C7C6C
:1011C4000804047838444444387C1414140808147B
:1011D40014147C7C08040408485454542404043F24
:1011E40044243C4040403C1C2040201C3C403040B7
:1011F4003C442810284404483008044464544C44B3
:1012040008364141000000770000004141360804DF
:1012140002020201000000000000000000000000C3
:1012240000000000000038FCFC3800000000000D45
:101234000D000000000E1E00001E0E000000000045
:101244000000000020F8F820F8F82000020F0F0238
:101254000F0F0200387C444747CC9800060C08382E
:10126400380F070030300080C06030000C060301E6
:10127400000C0C0080D87CE4BCD84000070F0808A0
:10128400070F080000101E0E000000000000000000
:10129400000000000000F0F80C0400000000030748
:1012A4000C0800000000040CF8F000000000080C1A
:1012B4000703000080A0E0C0C0E0A080000203019A
:1012C40001030200008080E0E08080000000000351
:1012D4000300000000000000000000000000101ED9
:1012E4000E0000008080808080808000000000006C
:1012F4000000000000000000000000000000000CDE
:101304000C00000000000080C06030000C060301E7
:1013140000000000F8F80CC40CF8F00003070C08F7
:101324000C070300001018FCFC0000000008080F64
:101334000F080800080C84C4643C18000E0F090848
:10134400080C0C00080C444444FCB800040C0808C5
:10135400080F0700C0E0B098FCFC80000000000803
:101364000F0F08007C7C444444C48400040C080827
:10137400080F0700F0F84C4444C08000070F080829
:10138400080F07000C0C0484C47C3C0000000F0F01
:1013940000000000B8FC444444FCB800070F0808EF
:1013A400080F0700387C444444FCF800000808088F
:1013B4000C070300000000303000000000000006AD
:1013C4000600000000000030300000000000080E9D
:1013D400060000000080C06030180800000001030F
:1013E400060C08000020202020202000000101011C
:1013F400010101000008183060C0800000080C06DC
:1014040003010000181C04C4E43C18000000000D93
:101414000D000000F0F008C8C8F8F000070F080B32
:101424000B0B0100E0F0988C98F0E0000F0F000027
:10143400000F0F0004FCFC4444FCB800080F0F0824
:10144400080F0700F0F80C04040C180003070C083C
:10145400080C060004FCFC040CF8F000080F0F084C
:101464000C07030004FCFC44E40C1C00080F0F08E8
:10147400080C0E0004FCFC44E40C1C00080F0F08CC
:1014840000000000F0F80C84848C980003070C081A
:1014940008070F00FCFC404040FCFC000F0F00005C
:1014A400000F0F00000004FCFC0400000000080F03
:1014B4000F08000000000004FCFC0400070F0808EB
:1014C4000F07000004FCFCC0E03C1C00080F0F00E8
:1014D400010F0E0004FCFC0400000000080F0F08BC
:1014E400080C0E00FCFC387038FCFC000F0F0000E8
:1014F400000F0F00FCFC3870E0FCFC000F0F000034
:10150400000F0F00F8FC040404FCF800070F08089F
:10151400080F070004FCFC44447C3800080F0F0843
:1015240000000000F8FC040404FCF800070F080E97
:101534003C3F270004FCFC44C4FC3800080F0F00A7
:10154400000F0F00183C6444C49C1800060E0808E1
:10155400080F0700001C0CFCFC0C1C000000080F0A
:101564000F080000FCFC000000FCFC00070F08084A
:10157400080F0700FCFC000000FCFC000103060C43
:1015840006030100FCFC000000FCFC00070F0E0336
:101594000E0F07000C3CF0E0F03C0C000C0F0301B4
:1015A400030F0C00000C7CC0C07C3C000000080F42
:1015B4000F0800001C0C84C4643C1C000E0F0908B6
:1015C400080C0E000000FCFC0404000000000F0FD7
:1015D400080800003870E0C080000000000000012E
:1015E40003070E0000000404FCFC000000000808CF
:1015F4000F0F0000080C0603060C08000000000092
:101604000000000000000000000000002020202056
:101614002020202000000307040000000000000038
:101624000000000000A0A0A0E0C00000070F080810
:10163400070F080004FCFC2060C08000000F0F08A6
:10164400080F0700C0E0202020604000070F0808B2
:10165400080C040080C06024FCFC0000070F08088C
:10166400070F0800C0E0A0A0A0E0C000070F080812
:10167400080C040040F8FC440C180000080F0F0884
:1016840000000000C0E02020C0E02000276F484890
:101694007F3F000004FCFC4020E0C000080F0F0066
:1016A400000F0F00000020ECEC0000000000080F09
:1016B4000F0800000000000020ECEC000030704037
:1016C400407F3F0004FCFC80C0602000080F0F0135
:1016D400030E0C00000004FCFC0000000000080FD6
:1016E4000F080000E0E060C060E0C0000F0F0007DA
:1016F400000F0F0020E0C02020E0C000000F0F000A
:10170400000F0F00C0E0202020E0C000070F0808F1
:10171400080F070020E0C02020E0C000407F7F4881
:10172400080F0700C0E02020C0E02000070F084891
:101734007F7F400020E0C06020E0C000080F0F0859
:101744000000000040E0A02020604000040C0909D3
:101754000B0E04002020F8FC202000000000070FDE
:10176400080C0400E0E00000E0E00000070F0808B7
:10177400070F080000E0E00000E0E0000003070CB1
:101784000C070300E0E0008000E0E000070F0C0716
:101794000C0F07002060C080C0602000080C070305
:1017A400070C0800E0E0000000E0E000474F484874
:1017B400683F1F00606020A0E06020000C0E0B0951
:1017C400080C0C00004040F8BC04040000000007B2
:1017D4000F080800000000BCBC0000000000000F5F
:1017E4000F000000000404BCF84040000008080F8B
:1017F40007000000080C040C080C040000000000A2
:101804000000000000081C1C1C1C1C1C1C1F0F0FCB
:1018140000001F1F1F00000000000003070F0E0040
:101824000000000000070F1F1C18181818F8F8F023
:101834000101FFFFFF0F0F1D3D79F1E1C18101019E
:101844000100000000E0F0F838383838383F1F9FB6
:10185400C0C0FFFFFFC0C0C0F0FEFFCFC1C0C0C00A
:10186400C0C0800000000C0C0E06060606FEFEFC3E
:101874000000FCFEFE060E0E1C1C98E0F0783C1ED8
:101884000E0606000000000303030303030303031F
:1018940003133B3F1F070303030303030303030370
:1018A40003020000000000FFFFFF00000000000032
:1018B4000000000000000000000000000000000024
:1018C40000000000000007FFFFF00000000000001F
:1018D4000000000000000000000000000000000004
:1018E40000000000001EFEFEE000000000000000FA
:1018F40000000000000000000000000000000000E4
:10190400000000000006060606060607070706068E
:1019140006060602001F1F0F03030303030303034A
:101924000301000000001F1F0F0000FFFFFF03035F
:101934000303010FFFFFFF8180808081FFFFFE8092
:10194400808000000000FFFFFF0000FFFFFF000099
:101954000060E0E0C0C0F8FC3F0F1FFFF8E00000AB
:1019640000000000060EFCFCFC1C18F8F8F072667F
:10197400E6EEDC9C387870E0C0C0C0E0F0383C1E75
:101984000E06020000000000000000000102030433
:041994000607080931
:041998003101000811
:04199C000D01000831
:0C19A000010000001000000000A24A043A
:0400000508000F4997
:00000001FF
